{
    "contractName": "TokenLocker",
    "abi": [
        {
            "inputs": [
                {
                    "internalType": "address",
                    "name": "_owner",
                    "type": "address"
                }
            ],
            "stateMutability": "nonpayable",
            "type": "constructor"
        },
        {
            "anonymous": false,
            "inputs": [],
            "name": "FeesClaimed",
            "type": "event"
        },
        {
            "anonymous": false,
            "inputs": [
                {
                    "indexed": true,
                    "internalType": "address",
                    "name": "hodler",
                    "type": "address"
                },
                {
                    "indexed": false,
                    "internalType": "address",
                    "name": "token",
                    "type": "address"
                },
                {
                    "indexed": false,
                    "internalType": "uint256",
                    "name": "amount",
                    "type": "uint256"
                },
                {
                    "indexed": false,
                    "internalType": "uint256",
                    "name": "unlockTime",
                    "type": "uint256"
                },
                {
                    "indexed": false,
                    "internalType": "uint256",
                    "name": "penaltyFee",
                    "type": "uint256"
                }
            ],
            "name": "Hodl",
            "type": "event"
        },
        {
            "anonymous": false,
            "inputs": [
                {
                    "indexed": true,
                    "internalType": "address",
                    "name": "hodler",
                    "type": "address"
                },
                {
                    "indexed": false,
                    "internalType": "address",
                    "name": "token",
                    "type": "address"
                },
                {
                    "indexed": false,
                    "internalType": "uint256",
                    "name": "amount",
                    "type": "uint256"
                },
                {
                    "indexed": false,
                    "internalType": "uint256",
                    "name": "timediff",
                    "type": "uint256"
                }
            ],
            "name": "PanicWithdraw",
            "type": "event"
        },
        {
            "anonymous": false,
            "inputs": [
                {
                    "indexed": true,
                    "internalType": "address",
                    "name": "hodler",
                    "type": "address"
                },
                {
                    "indexed": false,
                    "internalType": "address",
                    "name": "token",
                    "type": "address"
                },
                {
                    "indexed": false,
                    "internalType": "uint256",
                    "name": "amount",
                    "type": "uint256"
                }
            ],
            "name": "Withdrawal",
            "type": "event"
        },
        {
            "inputs": [
                {
                    "internalType": "address[]",
                    "name": "tokenList",
                    "type": "address[]"
                }
            ],
            "name": "claimFees",
            "outputs": [],
            "stateMutability": "nonpayable",
            "type": "function"
        },
        {
            "inputs": [
                {
                    "internalType": "address",
                    "name": "token",
                    "type": "address"
                },
                {
                    "internalType": "uint256",
                    "name": "amount",
                    "type": "uint256"
                },
                {
                    "internalType": "uint256",
                    "name": "unlockTime",
                    "type": "uint256"
                },
                {
                    "internalType": "uint256",
                    "name": "penaltyFee",
                    "type": "uint256"
                }
            ],
            "name": "hodlDeposit",
            "outputs": [],
            "stateMutability": "nonpayable",
            "type": "function"
        },
        {
            "inputs": [
                {
                    "internalType": "address",
                    "name": "",
                    "type": "address"
                }
            ],
            "name": "hodlers",
            "outputs": [
                {
                    "internalType": "address",
                    "name": "hodlerAddress",
                    "type": "address"
                }
            ],
            "stateMutability": "view",
            "type": "function"
        },
        {
            "inputs": [],
            "name": "owner",
            "outputs": [
                {
                    "internalType": "address",
                    "name": "",
                    "type": "address"
                }
            ],
            "stateMutability": "view",
            "type": "function"
        },
        {
            "inputs": [
                {
                    "internalType": "address",
                    "name": "token",
                    "type": "address"
                }
            ],
            "name": "panicWithdraw",
            "outputs": [],
            "stateMutability": "nonpayable",
            "type": "function"
        },
        {
            "inputs": [
                {
                    "internalType": "address",
                    "name": "token",
                    "type": "address"
                }
            ],
            "name": "withdraw",
            "outputs": [],
            "stateMutability": "nonpayable",
            "type": "function"
        }
    ],
    "bytecode": "608060405234801561001057600080fd5b50604051610be7380380610be783398101604081905261002f91610054565b600080546001600160a01b0319166001600160a01b0392909216919091179055610082565b600060208284031215610065578081fd5b81516001600160a01b038116811461007b578182fd5b9392505050565b610b56806100916000396000f3fe608060405234801561001057600080fd5b50600436106100625760003560e01c80630949083b146100675780634a3f17e71461007c57806351cff8d9146100a5578063725acc6b146100b85780638da5cb5b146100cb578063fa773127146100d3575b600080fd5b61007a6100753660046107bc565b6100e6565b005b61008f61008a3660046107bc565b6102af565b60405161009c91906108f6565b60405180910390f35b61007a6100b33660046107bc565b6102ca565b61007a6100c6366004610815565b610420565b61008f610625565b61007a6100e13660046107dd565b610634565b336000818152600160205260409020805490916001600160a01b039091161461012a5760405162461bcd60e51b815260040161012190610a0a565b60405180910390fd5b6001600160a01b038216600090815260018201602052604081206003810154905461015790606490610a83565b6101619190610aa3565b6001600160a01b03841660009081526001840160205260408120549192509061018b908390610ac2565b6001600160a01b038086166000818152600180880160209081526040808420849055835490951683528181528483208484529091019052829020859055905163a9059cbb60e01b81529192509063a9059cbb906101ee903390859060040161092e565b602060405180830381600087803b15801561020857600080fd5b505af115801561021c573d6000803e3d6000fd5b505050506040513d601f19601f8201168201806040525081019061024091906108d6565b506001600160a01b038416600090815260018401602052604090206002015433907f4ac88631be4f499653ed7b66b6f8e58dfc443de552029ad793891daf8ffc5ae79086908490610292904290610ac2565b6040516102a193929190610947565b60405180910390a250505050565b6001602052600090815260409020546001600160a01b031681565b336000818152600160205260409020805490916001600160a01b03909116146103055760405162461bcd60e51b815260040161012190610a0a565b6001600160a01b038216600090815260018201602052604090206002015442116103415760405162461bcd60e51b815260040161012190610a4c565b6001600160a01b038216600081815260018301602052604080822080549290555163a9059cbb60e01b815290919063a9059cbb90610385903390859060040161092e565b602060405180830381600087803b15801561039f57600080fd5b505af11580156103b3573d6000803e3d6000fd5b505050506040513d601f19601f820116820180604052508101906103d791906108d6565b50336001600160a01b03167f2717ead6b9200dd235aad468c9809ea400fe33ac69b5bfaa6d3e90fc922b6398848360405161041392919061092e565b60405180910390a2505050565b6000546001600160a01b0316331461044a5760405162461bcd60e51b81526004016101219061098e565b60005b81518110156105f857600080546001600160a01b0316815260016020819052604082208451910190829085908590811061049757634e487b7160e01b600052603260045260246000fd5b60200260200101516001600160a01b03166001600160a01b0316815260200190815260200160002060000154905060008111156105e5578282815181106104ee57634e487b7160e01b600052603260045260246000fd5b602090810291909101015160005460405163a9059cbb60e01b81526001600160a01b039283169263a9059cbb9261052c92911690859060040161092e565b602060405180830381600087803b15801561054657600080fd5b505af115801561055a573d6000803e3d6000fd5b505050506040513d601f19601f8201168201806040525081019061057e91906108d6565b50600080546001600160a01b031681526001602081905260408220855191019082908690869081106105c057634e487b7160e01b600052603260045260246000fd5b6020908102919091018101516001600160a01b03168252810191909152604001600020555b50806105f081610ad9565b91505061044d565b506040517fd8f21fccc983db3b872d2dc4c2ac57ac1e5b96be117c48626cac718ee33ed9b990600090a150565b6000546001600160a01b031681565b600a8110156106555760405162461bcd60e51b8152600401610121906109d3565b33600081815260016020818152604080842080546001600160a01b03199081168717825582516080810184528a81526001600160a01b038c81168287018181528387018d8152606085018d8152838c52878b01909952998790209351845551978301805498909216979093169690961790955594516002850155915160039093019290925590516323b872dd60e01b815290926323b872dd916106ff91903090899060040161090a565b602060405180830381600087803b15801561071957600080fd5b505af115801561072d573d6000803e3d6000fd5b505050506040513d601f19601f8201168201806040525081019061075191906108d6565b50336001600160a01b03167f8e292bbb20ea0ff3a379c6aa7bf5c873d3894e36b8769432c354022b966af65b868686866040516107919493929190610968565b60405180910390a25050505050565b80356001600160a01b03811681146107b757600080fd5b919050565b6000602082840312156107cd578081fd5b6107d6826107a0565b9392505050565b600080600080608085870312156107f2578283fd5b6107fb856107a0565b966020860135965060408601359560600135945092505050565b60006020808385031215610827578182fd5b823567ffffffffffffffff8082111561083e578384fd5b818501915085601f830112610851578384fd5b81358181111561086357610863610b0a565b8381026040518582820101818110858211171561088257610882610b0a565b604052828152858101935084860182860187018a10156108a0578788fd5b8795505b838610156108c9576108b5816107a0565b8552600195909501949386019386016108a4565b5098975050505050505050565b6000602082840312156108e7578081fd5b815180151581146107d6578182fd5b6001600160a01b0391909116815260200190565b6001600160a01b039384168152919092166020820152604081019190915260600190565b6001600160a01b03929092168252602082015260400190565b6001600160a01b039390931683526020830191909152604082015260600190565b6001600160a01b0394909416845260208401929092526040830152606082015260800190565b60208082526025908201527f4f6e6c7920617661696c61626c6520746f2074686520636f6e7472616374206f6040820152643bb732b91760d91b606082015260800190565b6020808252601a908201527f4d696e696d616c2070656e616c7479206665652069732031302e000000000000604082015260600190565b60208082526022908201527f4f6e6c7920617661696c61626c6520746f2074686520746f6b656e206f776e65604082015261391760f11b606082015260800190565b6020808252601c908201527f556e6c6f636b2074696d65206e6f742072656163686564207965742e00000000604082015260600190565b600082610a9e57634e487b7160e01b81526012600452602481fd5b500490565b6000816000190483118215151615610abd57610abd610af4565b500290565b600082821015610ad457610ad4610af4565b500390565b6000600019821415610aed57610aed610af4565b5060010190565b634e487b7160e01b600052601160045260246000fd5b634e487b7160e01b600052604160045260246000fdfea2646970667358221220f59ef73ff5ec502b9c9ab47a8ff4ab972374b719d73e4307ae83795cbdb3d67364736f6c63430008000033",
    "sourcePath": "/Users/stevyhacker/Documents/GitHub/TokenLocker/token-locker-contract/contracts/TokenLocker.sol",
    "compiler": {
        "name": "solc",
        "version": "0.8.0+commit.c7dfd78e"
    },
    "functionHashes": {
        "claimFees(address[])": "725acc6b",
        "hodlDeposit(address,uint256,uint256,uint256)": "fa773127",
        "hodlers(address)": "4a3f17e7",
        "owner()": "8da5cb5b",
        "panicWithdraw(address)": "0949083b",
        "withdraw(address)": "51cff8d9"
    },
    "gasEstimates": {
        "creation": {
            "codeDepositCost": "580400",
            "executionCost": "infinite",
            "totalCost": "infinite"
        },
        "external": {
            "claimFees(address[])": "infinite",
            "hodlDeposit(address,uint256,uint256,uint256)": "infinite",
            "hodlers(address)": "1294",
            "owner()": "1136",
            "panicWithdraw(address)": "infinite",
            "withdraw(address)": "infinite"
        }
    }
}